:020000040800F2
:1000000020040020BD0A00080509000807090008AF
:10001000090900080B0900080D090008000000008C
:100020000000000000000000000000000F090008B0
:100030001109000800000000130900081509000854
:10004000E10A0008E50A0008E90A0008ED0A0008CC
:10005000F10A0008F50A0008F90A0008FD0A00087C
:10006000010B0008050B0008090B00080D0B000828
:10007000110B0008150B0008190B00081D0B0008D8
:10008000210B0008250B0008290B00082D0B000888
:10009000310B0008350B0008390B00083D0B000838
:1000A000410B0008450B0008490B00084D0B0008E8
:1000B000510B0008550B0008590B00085D0B000898
:1000C000610B0008650B0008690B00086D0B000848
:1000D000710B0008750B000819090008790B00085E
:1000E0007D0B0008810B0008850B0008890B0008B8
:1000F0008D0B0008910B0008950B0008990B000868
:100100009D0B0008A10B0008A50B0008A90B000817
:10011000AD0B0008B10B0008B50B0008B90B0008C7
:10012000BD0B0008C10B0008C50B0008C90B000877
:10013000CD0B00080000000000000000D10B0008FB
:10014000D50B0008D90B0008DD0B0008E10B0008F7
:10015000E50B0008E90B0008ED0B0008F10B0008A7
:10016000F50B0008F90B0008FD0B0008010C000856
:10017000050C0008090C00080D0C00080000000028
:1001800000000000110C000800000000000000004A
:10019000150C00080000000000000000190C000809
:1001A0000000000000000000000000001D0C00081E
:1001B000210C0008250C0008290C00082D0C000853
:1001C000310C00080901020006D5CC4A00F00F00EE
:1001D000104400F8041C7047C94B1954704700F0D4
:1001E000070010B5C0F10703052B28BF0423041D29
:1001F000072C34BF0020C01E012404FA03F35B1E49
:100200001940814004FA00F0401E1040084310BD20
:10021000BC4900E0BC4981B00A6802430A60096831
:1002200008400090009801B0704730B500F00DF81C
:10023000046800F011F8026030BD30B500F005F838
:10024000C46800F009F8C26030BD91FAA1F3B3FAB6
:1002500083F391FAA1F1704703255B00B1FA81F1B4
:100260009D404900AC438A402243704730B58DB071
:1002700000F085F800F0CBF80420FFF7C9FF8020DC
:10028000FFF7C6FF0120FFF7C3FF0220FFF7C0FF03
:100290009E4C9F4D4FF40010A06101229D480168C3
:1002A00021F0F00141F0200101608DF804204FF4AD
:1002B00000510091022200218DF805108DF80620D2
:1002C000684600F047F900224FF400512846FFF736
:1002D000B4FF00224FF400512846FFF7A6FF20206C
:1002E000012102900391002204920592069202A934
:1002F000204600F0C5F94FF40030FFF78BFF0C21CA
:100300000091022201920321029100220392012115
:100310000491072205926946204600F0B1F97E4813
:100320007E4C006800F011F901462620FFF74AFFD5
:100330007B49402008600C214FF4165200230A919B
:1003400006920793089309930B930C9306A92046F2
:1003500000F00DFA206920F490402061606920F0DF
:100360002A006061E06840F40050E060E06840F41A
:100370000050E060E06840F02000E060FEE71CB55F
:100380006848654C016841F480410160006800F4F0
:10039000804000904FF080500099FFF73BFF2268AB
:1003A00061484FF6FF010A400243226000222068A4
:1003B00000F0CCF801466FF00B00FFF703FF00F0F0
:1003C000C3F801466FF00A00FFF7FCFE00F0BCF82E
:1003D00001466FF00900FFF7F5FE00F0B5F80146A1
:1003E0006FF00400FFF7EEFE00F0AEF801466FF08C
:1003F0000300FFF7E7FE00F0A7F801466FF00100E9
:10040000FFF7E0FE00F0A0F8BDE81C4072E010B578
:10041000464801680909090141F0020101600068CC
:1004200000F00F00022800D0FEE74148016821F4E7
:10043000404141F48041016002683E4922F480322B
:100440000260086820F0F80040F0800008600A6848
:1004500042F001020A6008688007FCD54A68364805
:10046000024042F4A84242F010024A60486820F478
:10047000403040F480304860486820F0E04040F46C
:1004800080304860086840F080700860086880012B
:10049000FCD58A6822F0F0028A60886820F4E05077
:1004A00040F480508860886820F4604088608868E4
:1004B0008008800040F002008860886800F00C002E
:1004C0000828FAD11D4C204600F0A4F91C48016808
:1004D00041F004010160204600F0A8F919480168C4
:1004E00021F08071016000220B48006800F02EF8B6
:1004F000BDE8104001464FF0FF3063E618ED00E024
:1005000000E400E030380240403802400000024081
:1005100000080240143801400CED00E000440040A7
:1005200004E100E0443802400007FA05003C0240C4
:1005300000700040003802400080BFFF00BD010590
:1005400010E000E08C380240206800220021C0F357
:10055000022044E630B502790368264C0121002AC6
:100560003ED0002B44D042791AB1022A0ED009D3D2
:1005700014E0656825EA0303636023680268134397
:1005800023600CE0256825EA030301E025682B437E
:100590002360636802681343636000E0002182798E
:1005A00032B3012A04D019D3032A0ED009D315E09F
:1005B000E36802689343E360A36800680343A360B1
:1005C00016E0A3680268934302E0A368026813433D
:1005D000A360E36800680343E36009E0002107E0EB
:1005E000226822EA03032360636800688343636030
:1005F000084630BD003C014030B500F01FF80468EB
:1006000000F00AF8026030BD30B500F017F88468D9
:1006100000F002F8826030BD03255B00B1FA81F181
:100620009D404900AC438A402243704730B500F0FA
:1006300005F8C468FFF7F0FFC26030BD91FAA1F37E
:10064000B3FA83F391FAA1F1704730B5FFF7F6FFE3
:10065000046A00F00BF8026230BD30B5090AFFF7FA
:10066000EDFF446A00F002F8426230BD0F259B00A6
:10067000B1FA81F19D408900AC438A402243704722
:10068000F8B50E460546316891FAA1F0B0FA80F748
:10069000FFB2346834FA07F02BD00121B9400C4086
:1006A00025D0726821462846FFF7A6FF706801280A
:1006B00018BF022804D1B26821462846FFF7A4FFDC
:1006C000326921462846FFF7B1FF706802280ED133
:1006D00094FAA4F0B0FA80F0C0B2082872692146FA
:1006E000284602D3FFF7B9FF01E0FFF7AEFF7F1CFA
:1006F000CFE77068012818BF022805D16968F06843
:10070000A14344430C436C600120F2BD10B5192491
:1007100061436424B2F5004F0FD15B0000F01FF875
:10072000E40032346421B4FBF1F14B0003F4F873BC
:1007300003EB021301F007010DE09B0000F00FF83E
:10074000240132346421B4FBF1F101F0F00303EB36
:10075000021301F00F01C91889B2816010BDB1FB0D
:10076000F3F16422B1FBF2F204FB121470477FB57F
:1007700004460E46E0680025810439D4E268244826
:1007800071680240F0680A4331690243B0690A4364
:100790000243E2602169B06821F4405101432161C4
:1007A0006169706921F4407101436161684600F03C
:1007B00045F811498C4208D0104884421CBF1049AA
:1007C0008C420AD00F48844201D1039906E00E48BA
:1007D00084421CBF0D498C420AD1029900291CBFDA
:1007E0003368002B04D0B2692046FFF78FFF012544
:1007F000284604B070BD00000010014000440040D5
:100800000048004000140140004C004000500040EF
:10081000F369FFFF4FF47A720649B0FBF2F0401E15
:10082000486000238B60052008607047024908601B
:100830007047000010E000E00000002010B5044602
:1008400000F00CF8206000F01BF8606000F01EF86B
:10085000A060606800F022F8E06010BD25480068E4
:1008600000F00C00042804D0082818BF0C2801D080
:1008700001E001E018E001E01D4870471B487047A7
:100880001C491D4A0968C1F3031104E019491B4AB8
:100890000968C1F38221515CC84070471549174A65
:1008A0000968C1F34231F6E715490A6802F480028B
:1008B000B2F5800F0CBF0E4A0C4A082808680B6876
:1008C000096800F03F00B2FBF0F2C3F3881005D1D5
:1008D0004243C1F30140401C400002E04243C1F3E7
:1008E0000270FFE7B2FBF0F0704700000024F40054
:1008F00000127A0008380240D0090008D80A00081F
:10090000043802407047FEE7FEE7FEE7FEE7704767
:100910007047704700BF704730B51748C16821F075
:100920002001C160036815490A7D9B061ED56FF042
:1009300020040460142A45688D5412DA521CD3B284
:10094000022B13D10A78A2F130040A2C3EBF4B7857
:10095000A3F130040A2C06D20A2414FB0232103A06
:100960004A75002202E0012300228B750A75C168D6
:1009700041F02001C16030BD00440040040000206F
:100980000E48016841F47001016000220C490868BA
:1009900040F0010008608A600B680A480A4A034078
:1009A0000B604A6000200B68084A23F480230B6028
:1009B000C8604FF0006111607047000088ED00E0F2
:1009C00000380240FFFFF6FE1030002408ED00E082
:1009D00000000000000000000102030406070809EF
:1009E00030B5016884684218416802EB5103C907B9
:1009F0000BD54C4409E012F9011B12F8015B0029E8
:100A000004F8015B05D5491CF9D19A42F3D10C30A9
:100A100030BD491EF1D5F8E710B5074979441831C2
:100A2000064C7C44163404E00A68081D11448847CB
:100A30000146A142F8D110BD2C0000003800000092
:100A40004EF68851CEF20001086840F4700008604C
:100A5000BFF34F8FBFF36F8F4FF00070E1EE100ABE
:100A6000704700007DFFFFFFCC0100000C0000007C
:100A70000000002000F00DF8002801D0FFF7CCFFA7
:100A8000AFF300800020AFF30080FFF7EFFB00F032
:100A900002F80120704700F001B800000746384610
:100AA00000F002F8FBE7000080B5AFF30080024AD7
:100AB00011001820ABBEFBE726000200014880476A
:100AC0000148004781090008CD0A0008AFF3008003
:100AD000FFF7B6FFFFF7CEFF00000000010203049E
:100AE000FFF7FEBFFFF7FEBFFFF7FEBFFFF7FEBF3A
:100AF000FFF7FEBFFFF7FEBFFFF7FEBFFFF7FEBF2A
:100B0000FFF7FEBFFFF7FEBFFFF7FEBFFFF7FEBF19
:100B1000FFF7FEBFFFF7FEBFFFF7FEBFFFF7FEBF09
:100B2000FFF7FEBFFFF7FEBFFFF7FEBFFFF7FEBFF9
:100B3000FFF7FEBFFFF7FEBFFFF7FEBFFFF7FEBFE9
:100B4000FFF7FEBFFFF7FEBFFFF7FEBFFFF7FEBFD9
:100B5000FFF7FEBFFFF7FEBFFFF7FEBFFFF7FEBFC9
:100B6000FFF7FEBFFFF7FEBFFFF7FEBFFFF7FEBFB9
:100B7000FFF7FEBFFFF7FEBFFFF7FEBFFFF7FEBFA9
:100B8000FFF7FEBFFFF7FEBFFFF7FEBFFFF7FEBF99
:100B9000FFF7FEBFFFF7FEBFFFF7FEBFFFF7FEBF89
:100BA000FFF7FEBFFFF7FEBFFFF7FEBFFFF7FEBF79
:100BB000FFF7FEBFFFF7FEBFFFF7FEBFFFF7FEBF69
:100BC000FFF7FEBFFFF7FEBFFFF7FEBFFFF7FEBF59
:100BD000FFF7FEBFFFF7FEBFFFF7FEBFFFF7FEBF49
:100BE000FFF7FEBFFFF7FEBFFFF7FEBFFFF7FEBF39
:100BF000FFF7FEBFFFF7FEBFFFF7FEBFFFF7FEBF29
:100C0000FFF7FEBFFFF7FEBFFFF7FEBFFFF7FEBF18
:100C1000FFF7FEBFFFF7FEBFFFF7FEBFFFF7FEBF08
:100C2000FFF7FEBFFFF7FEBFFFF7FEBFFFF7FEBFF8
:0A0C3000FFF7FEBF020024F4E80005
:0400000508000ACD18
:00000001FF
