:020000040800F2
:100000002008002019280008752500087725000819
:10001000792500087B2500087D25000800000000E8
:100020000000000000000000000000007F25000824
:1000300081250008000000008325000885250008B0
:100040003D280008412800084528000849280008E4
:100050004D28000851280008552800085928000894
:100060005D28000861280008652800086928000844
:100070006D280008712800087528000879280008F4
:100080007D280008812800088528000889280008A4
:100090008D28000891280008952800089928000854
:1000A0009D280008A1280008A5280008A928000804
:1000B000AD280008B1280008B5280008B9280008B4
:1000C000BD280008C1280008C5280008C928000864
:1000D000CD280008D128000889250008D528000867
:1000E000D9280008DD280008E1280008E5280008D4
:1000F000E9280008ED280008F1280008F528000884
:10010000F9280008FD280008012900080529000831
:10011000092900080D2900081129000815290008DF
:10012000192900081D29000821290008252900088F
:100130002929000800000000000000002D29000807
:100140003129000835290008392900083D2900080F
:100150004129000845290008492900084D290008BF
:100160005129000855290008592900085D2900086F
:1001700061290008652900086929000800000000BD
:10018000000000006D2900080000000000000000D1
:100190007129000800000000000000007529000817
:1001A00000000000000000000000000079290008A5
:1001B0007D2900088129000885290008892900086F
:1001C0008D2900082DE9F0439FB000BF65A6269C4D
:1001D000DFF8E48B8DF83B40029100240B944FF044
:1001E000FF37044691461D460AE019F8011B0298A4
:1001F000A0470028029000F0A1800B98401C0B90B3
:1002000099F8000050B12528EFD100210022059176
:1002100006920791089209910A9203E00B98A5E0D3
:1002200041F0010119F8010F2028F9D023280CD042
:100230002B2804D02D2805D0302809D080E041F0AB
:100240000201EFE741F00401ECE741F00801E9E7C2
:1002500041F01001E6E70D920AE00D98404505DAFD
:1002600000EB800002EB4002303A0D9209F10109E7
:1002700099F80020A2F130000A28EED399F8000086
:100280002E2818BF0C9726D119F8010F2A2808D15B
:100290002868286009F1010950F8042B28600C92A5
:1002A00019E02D280CBF09F10109002000220C9251
:1002B0000BE040B90C9A424505DA02EB820203EBEF
:1002C0004203303B0C9309F1010999F80030A3F186
:1002D00030020A2AEDD3ADF83810304699F80010F4
:1002E00000F030FF08B119F8010B8DF83A009DF8C5
:1002F0003A00682805D199F8000068280CD16221DD
:1003000006E06C2804BF99F800006C2804D1712124
:100310008DF83A1009F1010910A804902A4619F83D
:10032000013B6946204600F061F838B910AA6946D9
:10033000204600F0C5F900287FF562AF384615E089
:100340002A2888D12A682A6052F8040B2A600028DB
:100350000D9003D540420D9041F0040109F10109CF
:100360008CE70000686A6C747A4C00001FB0BDE82E
:10037000F083622820D0682811D06A2803D06C2826
:1003800027D0712825D10868C01D20F0070008601B
:10039000D0E9002308300860194610467047002A4B
:1003A0000A680A60106803D0121D0A6000B217E0E4
:1003B000121D0A6080B217E0002A0A680A601068FD
:1003C00003D0121D0A6040B20AE0121D0A60C0B2DA
:1003D0000AE0002A0A680A60106803D0121D0A6049
:1003E000C1177047121D0A60002170477CB50D4689
:1003F00011461C462E69B4F1250200F04F811C3ACB
:1004000000F08480121F022A40F280800E3A00F031
:100410000981521F59D0093A78D0921E16D0521E27
:1004200035D0521E022A71D9121F30D0521F00F04F
:100430009880521E49D0521E00F0E280D21E00F079
:10044000FF80921E41D0D21E3FD02DE195F83A4058
:100450006C2C09D06869421C6A610A680A6052F80B
:10046000043B0A60335429E10A680A6052F8043BED
:100470000A600093002201924FF0FF332B636A461B
:10048000294600F0A3F9002840F1188103E195F80E
:100490003A000122FFF76DFFC5E90001002904D5EC
:1004A0006869411C69612D220DE0288F810704D500
:1004B0006869411C69612B2205E0C00721D5686984
:1004C000411C6961202232541BE095F83A00002259
:1004D000FFF74FFFC5E9000195F83800010710D577
:1004E000D5E90023002B08BF002A0AD044F02000E1
:1004F000782806D1686930213154401C421C6A6159
:100500003454214668693044E86087E00868C01DBB
:1005100020F007000860D0E9002308300860C5E932
:100520000023D5E90001C80F04D06869411C696146
:100530002D220DE0288F810704D56869411C69616F
:100540002B2205E0C00704D56869411C696120229F
:10055000325468693044E8602146284600F041FA88
:10056000ACE005F13A02507820B14FF0FF340FF6BD
:10057000183074E01078622808D0682824D06A28DF
:1005800012D06C282ED071280ED02BE00A680A6099
:1005900052F8040B0A6020B94FF0FF340FF6003018
:1005A0005DE0E96A017089E00A680A6052F8040BAC
:1005B0000A6020B94FF0FF340FF6E4204FE0EA6AFA
:1005C000D317C0E9002379E00A680A6052F8040BE7
:1005D0000A6020B94FF0FF340FF6C4203FE0E96A0B
:1005E00001806BE00A680A6052F8040B0A6020B9C7
:1005F0004FF0FF340FF6A82031E0E96A01605DE0BA
:100600000A680A6052F8040B0A60002120F0000218
:1006100021F0FF33C5E90023EE607821284600F081
:1006200038F94BE06C2285F83A200B680B6053F8E0
:10063000042B0B6052BB4FF0FF340FF698200EE0F6
:1006400095F83A206C2AF0D00868086050F8044BFE
:100650000860EC603CB94FF0FF340FF65C2000F00E
:1006600081FD201A76BD2E6B002E04D5204600F0A9
:1006700099FD044608E032460021204600F0AEFD18
:10068000002814BF041B3446AC6117E0294600F073
:100690009DF8002812D54FF0FF3076BD6869411CE7
:1006A00069612522325409E06969481C6861252284
:1006B0007254210002D0431C6B613454002076BD7B
:1006C0002DE9FC410F46064690467A6B7869396AF7
:1006D000BC6A121AB869521A796A121AF869521A5F
:1006E000121A97F83800141B41070FD42020002C51
:1006F0008DF800000ADD254601236A46394630465A
:1007000000F0AAFC00285DD16D1EF5D17B69424640
:100710003946304600F0A0FC002853D130208DF837
:1007200000003D6A002D09DD01236A463946304646
:1007300000F092FC002845D16D1EF5D1BB69FA6826
:100740003946304600F088FC00283BD130208DF837
:1007500000007D6A002D08DD01236A4639463046D7
:1007600000F07AFC70BB6D1EF6D1F868B969FB69C0
:1007700042183946304600F06FFC18BB30208DF827
:100780000000BD6A002D08DD01236A463946304667
:1007900000F062FCB0B96D1EF6D197F83800410741
:1007A0000DD52020002C8DF8000008DD01236A46BD
:1007B0003946304600F050FC20B9641EF6D10020C6
:1007C000BDE8F6814FF0FF30BDE8F6812DE9F8472E
:1007D0000D46A3B02F6B002F0646904648BF6FF022
:1007E00000470FF60C1400F025FDD4E90023696BD7
:1007F0004018CDE90123812828BF4FF0FF3042D2B5
:100800000024002F33DDD8F8001001AA684600F05C
:1008100015FD8146B9F1000F38D4D8F8000010B9A1
:10082000B9F1010932D44F4521DB68694844812878
:100830000AD30021696303AA29463046FFF740FF27
:10084000040014D40020686103ABD5F814A04A4614
:10085000694603EB0A0000F0F3FCCA44C5F814A093
:1008600058F8040B002818BFA7EB0907C9D14CB9E9
:1008700003AA29463046FFF723FF044614B9002097
:1008800068616863204624B0BDE8F0874FF0FF340C
:10089000F8E72DE9FC4307466F293E6908BF0824A5
:1008A00005D041F02000782814BF0A2410243C25EC
:1008B000D7E90023642918BF69299046994605D1D4
:1008C000002B03D5D8F1000869EB4909B9F1000FF5
:1008D00008BFB8F1000F1FD1386BE8B9082C4CD114
:1008E00097F83800010748D530203B2586F83B00B3
:1008F00043E000280ED597F8380000F014001028C7
:1009000008D17B6B7969386A5B1A1B1A9A1A002A1C
:10091000C8BF3A62BDE8F3838DF8001040464946EF
:100920002246E31700F0E0FC3032D0B26D1E3A28C8
:10093000019504DB9DF80000A0F151018A18725561
:10094000404649462246E31700F0CEFC80465FEA67
:10095000010908BFB8F1000F03D0F8687119884287
:10096000DCD3082C09D197F83800010705D5705D54
:10097000302802D06D1E30207055C5F13C02BA619E
:100980007119F960386B8242B3DA821A3A624FF613
:10099000EF70398F01403987BDE8F3832DE9D043EB
:1009A00006460F4614464FF00008DFF8109412E098
:1009B000E00707D542464B463046394600F0ACFDCD
:1009C00006460F464046494642464B4600F0A4FDC7
:1009D000641080468946002CEAD130463946BDE88D
:1009E000D0832DE9F84F05468A464AF020048EB0A0
:1009F000D5E90089612C02AE09D0286B002848BFD8
:100A0000062003D408BF672C01D101202863D5E953
:100A100000014A005215521C0DD10B030BD0AAF154
:100A2000610103201A29A86102D20FF2CC6110E003
:100A30000FF2C8610DE04A005215521C0ED10B0393
:100A40000CD1AAF1610103201A29A86116D30FF273
:100A5000B461E868032200F0F3FBBFE1CDE90C01CB
:100A6000DDE90C2323F00043B3F5801F0DD20027EE
:100A7000002B08BF002A019703D111E00FF280611B
:100A8000E7E701AA00F01AFE0AE0CD48CD4900EBE5
:100A90001350DDE90C2301900B40CB49104619435C
:100AA000C5E90001612C0DD1E86830210170821C7C
:100AB000BAF1610FEA600CBF782158214170686972
:100AC000801C6861D5E90001CDE90C01DDE90C234A
:100AD00033F0004104BF0028002300F04881612C5E
:100AE00040F0A080286B494600284CBF4FF0210BF6
:100AF00000F1010B404600220023DDE90C8900F0E3
:100B000015FE01990BF1010738BF89F00049091F53
:100B1000002F01918DF808200DF1090040F3358177
:100B2000A84900910646404649460022002300F0AD
:100B300015FE80F029814800400D00F11C0211D003
:100B4000002A0FDD40F2FF739A4205DB9F4909F04E
:100B500000400143002011E0009B194041EA02518E
:100B600040460BE028F0000039F0004108BF0028A3
:100B70000FBF49461C22494600F008FE80468946C0
:100B800000F0A2FEFF1F002F044609DD00F0BAFEB0
:100B900002460B464046494600F0C6FE804689465E
:100BA000F01D072104E004F00F0200F8012D2411CC
:100BB000002C01DD491EF6D5491E5CBF002200F85D
:100BC000012DF9D5DCE00020194602AA0A4400E014
:100BD0005B1E12F80149491E8442F9D00F2804D146
:100BE0000DF10900425C521C4254002904D50198C1
:100BF000001D02AE5B1C0190581E0CD43118AAF1E6
:100C00003A040A783032D7B23A2FA8BFA218401E51
:100C100001F80129F5D5286B002840F1A780591E5D
:100C20002963A3E001996A4A47F29750414391FB37
:100C3000F2F2019229F00046D2F1070204DD4046AB
:100C40003146FFF7ABFE0AE0524200206149FFF750
:100C5000A5FE02460B464046314600F0D7FE8046D0
:100C6000662C286B06BF019F0A3706273F18142FF2
:100C7000C8BF142730208DF8080089460DF10900FF
:100C800000E03046002F34DD06464046494600F07D
:100C9000E1FF01460A4606F1080304200A26B2FBDA
:100CA000F6F606EB860EA2EB4E02303203F8012C6C
:100CB0000A22B6FBF2F202EB820EA6EB4E063036AB
:100CC000401E03F8026DE9D1083F002F03F108062A
:100CD000D7DD084600F0D2FF02460B4640464946A3
:100CE00000F022FE00223C4B00F016FC80468946B4
:100CF000CBE70DF10901401A0DF1090604E0019955
:100D0000491E401E0191761C31783029F7D0662C9F
:100D100002D10199491C03E0652C0CBF012100217F
:100D20002B6BCB189842B8BF431E002B1ED48342B6
:100D300004DAF05C3528A8BF392000DA30201946E3
:100D4000721E02EB010800E05B1E18F80199491EB3
:100D50008145F9D0392802D1705C401C70540029BB
:100D600004D50198401C16465B1C0190019800B206
:100D700000901BB232465146284600F033F82DE071
:100D8000C61D002F3FF7CFAE30460DF10901401AC6
:100D900003465845C8BF5B46002B0DF109063FF5D9
:100DA0003AAF8342BFF60FAF0DF10900C15C0729CE
:100DB0007FF709AF0F2007E7CBCCCC0C0000244015
:100DC00002FCFFFFFFFF0F800000E03F0000F07F0C
:100DD000A08601000000F03F84D797410FB0BDE826
:100DE000F08F00002DE9FC43054683B01F46D5F87F
:100DF0003080002F164602DC5FF00107C2A689464C
:100E000049F02000BDF93040662808BF641C17D0A7
:100E1000672840F0888014F1040FC0F28A804445AE
:100E200080F2878095F83800641C010702D447459A
:100E3000B8BFB84620B2B8EB000848BF4FF0000872
:100E40000FFA84F9E868A969B9F1000F27DC4A1C98
:100E500030234354B8F1000F03DC95F83800010744
:100E600003D5E9682E208854521C18EB090FB8BF2F
:100E7000C8F1000424B260426862A044B845AA6187
:100E8000B8BF4746EB68A8693FB2EF613A463146C2
:100E9000184400F0D5F9A8EB0700A862C5E022B21B
:100EA0009742084419DA3A46314600F0C9F9A86970
:100EB0003818A9EB0707B8F1000FA8616F6203DCCF
:100EC00095F838100A0705D5EA682E211154E8690B
:100ED000401CE861C5F82880A7E0314600F0B0F971
:100EE000A8693F1BB8F1000F484403DC95F838109F
:100EF0000A0703D5EA682E211154401CA86138B2B4
:100F00008045EB68A869B8BF47463AB206EB0901CD
:100F1000184400F095F9A9693FB27918A8EB0707C2
:100F2000A9616F6281E0B9F1610F16D14FF07009CC
:100F300018E0474504DA95F838100A0758BFB84654
:100F4000B8F1010848BF4FF00008B9F1670F14BFAE
:100F50004FF045094FF0650904E0B9F1410F08BFB2
:100F60004FF05009A969EB68481CA861B8F1000F5F
:100F700016F8012B5A5403DC95F838100A0719D5D6
:100F8000EA68431CAB612E211154B8F1000F11DD4A
:100F90007F1E38B231468045EE68B8BF47463AB248
:100FA000F01800F04DF9A8693FB23818A861A8EB15
:100FB00007006862E868A9690844002C80F800907E
:100FC00003D42B224270811C03E02D214170644226
:100FD000811C00206A460AE023460A2493FBF4F4AD
:100FE00004EB8406A3EB460302F8013B401C24B249
:100FF000002CF1DC012806DC49F02002652A04BF40
:10100000302201F8012B48B9302001F8010B07E02C
:10101000401E1DF80030303301F8013B0028F7DC9A
:10102000EA68A8691044091AE96195F8380000F0E7
:10103000140010280DD16A69A969686A8A18E969DB
:101040008218A86A8A188218686B8242BCBF821A0A
:101050002A6205B0BDE8F083F8B505460E4617468E
:101060001C46002074B117F8011BB068A847B06097
:1010700030B1F06A401CF0620020641EF3D1F2BD72
:101080004FF0FF30F2BD00007072696E74665F73DE
:101090003A20256E20646973616C6C6F776564001B
:1010A0007072696E74663A2062616420256E2061F8
:1010B0007267756D656E74007072696E74665F73C9
:1010C0003A2062616420257320617267756D656ED8
:1010D000740000007072696E74665F733A2062611A
:1010E0006420256C7320617267756D656E740000F5
:1010F00000000000000000006E616E004E414E00D6
:10110000696E6600494E4600300030B4002513E099
:1011100050F8042BD30744BFA9F101039A18091F03
:10112000042942F8045BFAD213468C0744BF1580A9
:101130009B1CC90748BF1D7050F8041B0029E7D14C
:1011400030BC7047C9B202788A421AB11CBF10F88D
:10115000012FF9E718BF002070470268531C036095
:101160001170704780B500B906A005490B681BB126
:1011700022220021984701E000F08DFD222002BDCF
:101180001C040020636F6E73747261696E74206852
:10119000616E646C65723A20626164206D65737380
:1011A0006167650000F10103810704D010F8011B9D
:1011B000820781B1FAD10268A2F10131914311F0A5
:1011C000803104BF50F8042FF6E709BAB1FA81F173
:1011D00000EBD100401CC01A70470000C9B2830761
:1011E00006D0521E22D310F8013B9942F7D11FE0DE
:1011F000083A13D302F1040241EA012141EA014114
:1012000050F8043B121F21BF4B40A3F1013C2CEAD4
:10121000030C1CF0803FF3D0C9B2001F083210F855
:10122000013B521E28BF91EA030FF8D818BF0120D6
:10123000401E70470120704700F030BD0023FBE7DF
:1012400062B38B0708D0521E11F8013B00F8013B36
:1012500000F024808B07F6D1830740F0208000BF88
:10126000103A07D330B4B1E83810103AA0E838107B
:10127000F9D230BC530724BFB1E80810A0E8081029
:1012800044BF51F8043B40F8043BD20724BF31F877
:10129000022B20F8022B44BF0B7803707047121FFB
:1012A00017D35B0009D151F8043B20F8023B1B0C1B
:1012B000121F20F8023BF6D20BE051F8043B00F875
:1012C000013B1B0A20F8023B1B0C121F00F8013BDC
:1012D000F3D238BF121D521E24BF11F8013B00F893
:1012E000013BF8D870470000BBBBE1B1B2F5803FCD
:1012F00080F07E80022A1ED98C46B1FBF2F102FBFF
:1013000011C31B0443EA1043B3FBF2FC02FB1C3382
:1013100080B240EA0343B3FBF2F002FB103240EA32
:101320000C4000237047022A05D98446B0FBF2F036
:1013300002FB10C270474AB105D100F00102490812
:101340005FEA3000704700220023704700F0B0BC15
:101350000B000200002100207047904271EB030C4B
:10136000F6D3B3F5803F2FD2F0B5B3FA83F7B1FAD5
:1013700081F4A7F10F0E3D1B5340CEF1200602FA77
:101380000EF2F3415340B5F10F0746D80F3C2C4401
:101390004140C4F12006A040F1414140B1FBF3F6C9
:1013A00003FB1611A2FB0645001BA94102D2761EC3
:1013B0008018594180EA010221FA0EF362FA0EF216
:1013C00000215A403046F0BD30B4B1FBF3FC03FBC2
:1013D0001C11A2FB0C45001BA94103D2ACF1010C6E
:1013E0008018594130BC02460B46604600217047C8
:1013F000B2F1807F65D3F0B5B2FA82F7B1FA81F429
:10140000C7F10F063D1B22FA06F307F1110EF24158
:1014100020355A40B5F10F07B8D94140C4F1200634
:10142000A040F1414140B1FBF3FC03FB1C11A2FBC6
:101430000C45001BA94103D2BCF1010C8018594195
:101440000F2F12D30F3FC90341EA5041B1FBF3F60E
:1014500003FB1611A2FB0645D4EBC030A94102D212
:10146000761E8018594146EACC3C07B34140C7F18B
:101470002006B840F1414140B1FBF3F603FB1611E1
:10148000A2FB0645001BA94102D2761E80185941D5
:1014900080EA010221FA0EF3C7F1200462FA0EF28B
:1014A0000CFA07F05A402CFA04F13043F0BD80EA00
:1014B000010221FA0EF3002162FA0EF260465A4050
:1014C000F0BD8C46B1FBF2F102FB11C31B0243EAF3
:1014D0001063B3FBF2FC02FB1C331B024CEA00203E
:1014E00043EA1063B3FBF2FC02FB1C331B024CEA21
:1014F000002043EA1063B3FBF2FC02FB1C331B0227
:101500004CEA002043EA1063B3FBF2FC02FB1C32FE
:101510004CEA002000237047B0B581EA030C0CF0C0
:10152000004C40F2FF7515EA11541DBF15EA135720
:10153000AC42AF4239E0E41923EA455343F4801347
:10154000C90241F0004141EA505EC7021100A7FB09
:10155000020200284FF00000EEFB01204FF00001D6
:10156000E3FB072118BF42F0010240180021494166
:10157000E3FB0E01A4F580640F0302D25200404148
:10158000494154F101046CDD470872F1004250F109
:10159000000051EB0451A1F580115CBF41EA0C0140
:1015A000B0BD4CEA05510020B0BD05EA1357AC426E
:1015B00014BFAF4241E050EA410E1CBF52EA430E55
:1015C00002E061460020B0BD24423C441BD15FEAEA
:1015D000070EF6D0090302BF01460020AEF1140E3B
:1015E000B1FA81F7AEEB070401FA07FE0C37C7F139
:1015F000200100FA07F7C8404EEA000E23EA4553DF
:1016000043F48013A2E733F00043B3FA83F704BF37
:10161000B2FA82FE77440B3FE41BB7F1200E2FBFD6
:1016200002FA0EF3BB40C7F1200E22FA0EFE38BFBD
:1016300043EA0E03BA40641C82E750EA410E14BF2D
:1016400052EA430E6FF000014FF4001717EB430FFF
:101650008ABF194617EB410FB5E74CEA0551002048
:10166000B0BDD4F10104B4F120070FDAC4F12007B2
:10167000520828BF42F0010210FA07F501FA07F7F5
:10168000E1BF2A43E0403843E1400FE0352C98DCCD
:10169000C7F1200452EA400220FA07F218BF42F0D4
:1016A000010231FA07F0A1400A43002172F1004221
:1016B00050F1000051EB0C01B0BD000010B5144614
:1016C00000F002F8226010BDC1F30A5343B14A0092
:1016D00012F5001F28D2A3F2FE32A1EB025170478F
:1016E00050EA410C20D001F0004C31EA0C01B1FA73
:1016F00081F204BFB0FA80F3D2180B3AB2F12003A2
:101700002CBF00FA03F1914041EA0C013EBFC2F147
:10171000200C20FA0CF319439040524240F2FD3362
:10172000D21A01EB03517047002270474FF4001C9E
:101730001CEB410F94BF1CEB430F09E041EA030C83
:1017400050EA4C0C52EA0C0C03D2994208BF90426A
:10175000704714BF8B428242704700004FF4001C58
:101760001CEB410F94BF1CEB430F09E041EA030C53
:1017700050EA4C0C52EA0C0C03D28B4208BF824256
:10178000704714BF9942904270470000124254D4EF
:1017900040F2FF7C1CEA11530FD0634531D09B18F7
:1017A00063453CBF01EB0251704701F0004141EA43
:1017B0000C510020AFF30080704750EA410320D065
:1017C00001F0004C91EA0C011CD0B1FA81F30B3B03
:1017D0009A420DD9D21A994051EA0C01C3F1200C5A
:1017E00020FA0CFC61449840531C40F2FF7CD7E780
:1017F000914041EA0C01C2F1200C20FA0CF319438C
:1018000090407047B0FA80F31533202BE0D3202AA4
:10181000EED3203A203B9A4209D9D21A00FA03F1BA
:1018200041EA0C010020531C40F2FF7CB8E700FAAB
:1018300002F141EA0C0100207047524240F2FF7C65
:101840001CEA11530DD06345DBD0B2EB030C3CBF57
:10185000A1EB025170470CF1010221EA035141F45E
:10186000801150EA410CCCD001F0004C352A27DC25
:1018700030B481EA0C01B2F1200309DAC2F120038D
:10188000044601FA03F5D0402843D1409C400CE0C7
:10189000C3F12002450020FA03F418BF44F001040C
:1018A00021FA03F091400C43002174F1004550F1FE
:1018B000000051EB0C01244230BC7FF47BAF704739
:1018C0006146002076E70000C1F30A5340F2FE3281
:1018D0009B1A14DDD3F120034FEAE17208DDC9023F
:1018E00041EA505141F00040D840801850407047C4
:1018F00003F2E13010B1D24382F000407047002083
:1019000070470000C11768B14840401AB0FA80F231
:101910009040D21CC907C2F5846241EA025202EB30
:10192000D02140057047000070B44FF0004591EAA7
:10193000030F40F1BF816B40841A71EB030603D2A1
:10194000001BB141121973414FF4001C1CEB410FF5
:1019500034BF7CEB430442E00C0DA4EB1356352E50
:101960004FDC45EAC323DB0A45EAC121C912B6F1BF
:1019700020050DDD63FA05F6EB4086EA0305124209
:1019800018BF45F00105C01851F100010CD213E059
:1019900062FA06F5F2405540F3415A40B340F34035
:1019A0005A408018594107D349085FEA30005FEA7E
:1019B000350528BF45F0010501F58011420875F194
:1019C000004250F1000041EB04514E0016F5001F9B
:1019D00070BC38BF70470020090D090570471CEB2B
:1019E000410F10D252EA43060BD0BCEB410F05D891
:1019F0000C0DAB43661E342EB6DD02E0AB438018FF
:101A0000594170BC704770BC70470000F0B540F29F
:101A1000FF7581EA030C0CF0004C15EA11541DBF50
:101A200015EA1357AC42AF42E5E0BC41C1F31301E4
:101A3000C3F31303801A994143F4801304D2641E44
:101A40004000494180185941C90241EA5051B1FB57
:101A5000F3F603FB1611A2FB0675D7EBC020A941D4
:101A600002D2761E80185941C90241EA5051B1FB99
:101A7000F3FE03FB1E11A2FB0E75D7EBC020A9419C
:101A800003D2AEF1010E80185941890241EA90510A
:101A9000760546EA8E2EB1FBF3F603FB1611A2FB88
:101AA0000675D7EB8020A94102D2761E80185941D5
:101AB000C90241EA50514EEA060EB1FBF3F603FBB0
:101AC0001611A2FB0675D7EBC020A94102D2761EE3
:101AD00080185941C90241EA5051B1FBF3F703FBA9
:101AE0001711A2FB0735D3EBC020A94167F100070E
:101AF0000CBF004247F0010766F3D5274FEA1E31BD
:101B0000B80814F5806412DDBD0775F1004250EB92
:101B10000E5051EB045111F5801F5CBF41EA0C01DE
:101B2000F0BD4CF07F6141F0E0410020F0BDBD0709
:101B30006D0840EA0E5041F48011D4F10104B4F173
:101B400020060ADAC4F120060200E04001FA06F39A
:101B5000E1401843B24015430EE0342C13DCC6F1CB
:101B6000200445EA40056D0820FA06F2154321FAE3
:101B700006F0A1400D43002175F1004250F1000034
:101B800051EB0C01F0BD00205FEA0C01F0BDCFB9B4
:101B900092185B41B3FA83F704BFB2FA82F6BF1919
:101BA0000B3FB7F120062FBF02FA06F3BB40C7F187
:101BB000200622FA06F638BF3343BA401CB1E419B6
:101BC000641E33E77F4231F00041B1FA81F404BF73
:101BD000B0FA80F6A4190B3CB4F120062FBF00FA2E
:101BE00006F1A140C4F1200620FA06F638BF3143C1
:101BF000A0403C1B1AE7AC421ABF05EA1357AF429C
:101C000012E050EA41061CBF52EA4306BFE750EA21
:101C10004107304661461CBF41EA0551F0BD52EA1A
:101C2000430C08BFC143F0BD00204FF4001616EB73
:101C3000410F98BF16EB430F08BF16EB410F24BFAF
:101C4000C14305E016EB430F0CBF61464CEA05515A
:101C5000F0BD0000400D491840EA81200CD2490D2A
:101C6000A1F58061491C40F0004005DBD1F11F0166
:101C700054BFC840C017704700207047014648B1A4
:101C8000B0FA80F18840C91CC1F58461090501EBF7
:101C9000D02140057047012000F0C2B8B1F5807F27
:101CA00002D34FF0FF3070470170012070470000F1
:101CB00070470000841A71EB030604D26E40001BCB
:101CC000B141121973414FF4001C1CEB410F34BF9A
:101CD0007CEB430683E00C0DA4EB1356362E00F389
:101CE0007C80012E45EAC32341DC43EA525312BFF4
:101CF000D20292025B08240545EAC12141EA505113
:101D0000D2EBC020994125D407D1B0FA80F610FA61
:101D100006F162D00020203608E0B1FA81F6B14029
:101D2000C6F1200220FA02F21143B0404FEAF474E7
:101D3000B4EB465434F001064FEA74040AD8D6F5E1
:101D40000016760D04F00044F04061FA06F25040AF
:101D5000F1404840C00A40EA415021F0004128BF0C
:101D60005FEA500550F1000044EBD12135E0DB0A79
:101D700045EAC121C90AB6F120050EDD42EA024258
:101D8000120CC5F1200603FA06F6EB4042EA0605FE
:101D90006D42984161F100010DE062FA06F5F240F2
:101DA000554063FA06FC82EA0C02F3405A406D4249
:101DB000904161EB030111F4801F05D1641E62059F
:101DC00002D06D004041494121F48011430875F172
:101DD000004350F1000041EB045170BC70471CEB14
:101DE000410F15D223F0004352EA43060BD04FEACD
:101DF0004C0CBCEB410F04D80C0D661E342EB7DD25
:101E0000EBE7801A994150EA410608BF0021E4E758
:101E100008BF1CEB430F28BF6FF00001DDE7000097
:101E200080B5AFF30080024A11001820ABBEFBE77B
:101E3000260002000901020006D5CC4A00F00F007E
:101E4000104400F8041C7047C94B1954704700F047
:101E5000070010B5C0F10703052B28BF0423041D9C
:101E6000072C34BF0020C01E012404FA03F35B1EBC
:101E70001940814004FA00F0401E1040084310BD94
:101E8000BC4900E0BC4981B00A6802430A600968A5
:101E900008400090009801B0704730B500F00DF890
:101EA000046800F011F8026030BD30B500F005F8AC
:101EB000C46800F009F8C26030BD91FAA1F3B3FA2A
:101EC00083F391FAA1F1704703255B00B1FA81F128
:101ED0009D404900AC438A402243704730B58DB0E5
:101EE00000F085F800F0CBF80420FFF7C9FF802050
:101EF000FFF7C6FF0120FFF7C3FF0220FFF7C0FF77
:101F00009E4C9F4D4FF40010A06101229D48016836
:101F100021F0F00141F0200101608DF804204FF420
:101F200000510091022200218DF805108DF8062045
:101F3000684600F047F900224FF400512846FFF7A9
:101F4000B4FF00224FF400512846FFF7A6FF2020DF
:101F5000012102900391002204920592069202A9A7
:101F6000204600F0C5F94FF40030FFF78BFF0C213D
:101F70000091022201920321029100220392012189
:101F80000491072205926946204600F0B1F97E4887
:101F90007E4C006800F011F901462620FFF74AFF49
:101FA0007B49402008600C214FF4165200230A910F
:101FB00006920793089309930B930C9306A9204666
:101FC00000F00DFA206920F490402061606920F053
:101FD0002A006061E06840F40050E060E06840F48E
:101FE0000050E060E06840F02000E060FEE71CB5D3
:101FF0006848654C016841F480410160006800F464
:10200000804000904FF080500099FFF73BFF22681E
:1020100061484FF6FF010A40024322600022206817
:1020200000F0CCF801466FF00B00FFF703FF00F063
:10203000C3F801466FF00A00FFF7FCFE00F0BCF8A1
:1020400001466FF00900FFF7F5FE00F0B5F8014614
:102050006FF00400FFF7EEFE00F0AEF801466FF0FF
:102060000300FFF7E7FE00F0A7F801466FF001005C
:10207000FFF7E0FE00F0A0F8BDE81C4072E010B5EC
:10208000464801680909090141F002010160006840
:1020900000F00F00022800D0FEE74148016821F45B
:1020A000404141F48041016002683E4922F480329F
:1020B0000260086820F0F80040F0800008600A68BC
:1020C00042F001020A6008688007FCD54A68364879
:1020D000024042F4A84242F010024A60486820F4EC
:1020E000403040F480304860486820F0E04040F4E0
:1020F00080304860086840F080700860086880019F
:10210000FCD58A6822F0F0028A60886820F4E050EA
:1021100040F480508860886820F460408860886857
:102120008008800040F002008860886800F00C00A1
:102130000828FAD11D4C204600F0A4F91C4801687B
:1021400041F004010160204600F0A8F91948016837
:1021500021F08071016000220B48006800F02EF829
:10216000BDE8104001464FF0FF3063E618ED00E097
:1021700000E400E0303802404038024000000240F5
:1021800000080240143801400CED00E0004400401B
:1021900004E100E0443802400007FA05003C024038
:1021A00000700040003802400080BFFF00BD010504
:1021B00010E000E08C380240206800220021C0F3CB
:1021C000022044E630B502790368264C0121002A3A
:1021D0003ED0002B44D042791AB1022A0ED009D346
:1021E00014E0656825EA030363602368026813430B
:1021F00023600CE0256825EA030301E025682B43F2
:102200002360636802681343636000E00021827901
:1022100032B3012A04D019D3032A0ED009D315E012
:10222000E36802689343E360A36800680343A36024
:1022300016E0A3680268934302E0A36802681343B0
:10224000A360E36800680343E36009E0002107E05E
:10225000226822EA030323606368006883436360A3
:10226000084630BD003C014030B500F01FF804685E
:1022700000F00AF8026030BD30B500F017F884684D
:1022800000F002F8826030BD03255B00B1FA81F1F5
:102290009D404900AC438A402243704730B500F06E
:1022A00005F8C468FFF7F0FFC26030BD91FAA1F3F2
:1022B000B3FA83F391FAA1F1704730B5FFF7F6FF57
:1022C000046A00F00BF8026230BD30B5090AFFF76E
:1022D000EDFF446A00F002F8426230BD0F259B001A
:1022E000B1FA81F19D408900AC438A402243704796
:1022F000F8B50E460546316891FAA1F0B0FA80F7BC
:10230000FFB2346834FA07F02BD00121B9400C40F9
:1023100025D0726821462846FFF7A6FF706801287D
:1023200018BF022804D1B26821462846FFF7A4FF4F
:10233000326921462846FFF7B1FF706802280ED1A6
:1023400094FAA4F0B0FA80F0C0B20828726921466D
:10235000284602D3FFF7B9FF01E0FFF7AEFF7F1C6D
:10236000CFE77068012818BF022805D16968F068B6
:10237000A14344430C436C600120F2BD10B5192405
:1023800061436424B2F5004F0FD15B0000F01FF8E9
:10239000E40032346421B4FBF1F14B0003F4F87330
:1023A00003EB021301F007010DE09B0000F00FF8B2
:1023B000240132346421B4FBF1F101F0F00303EBAA
:1023C000021301F00F01C91889B2816010BDB1FB81
:1023D000F3F16422B1FBF2F204FB121470477FB5F3
:1023E00004460E46E0680025810439D4E26824489A
:1023F00071680240F0680A4331690243B0690A43D8
:102400000243E2602169B06821F440510143216137
:102410006169706921F4407101436161684600F0AF
:1024200045F811498C4208D0104884421CBF10491D
:102430008C420AD00F48844201D1039906E00E482D
:1024400084421CBF0D498C420AD1029900291CBF4D
:102450003368002B04D0B2692046FFF78FFF0125B7
:10246000284604B070BD0000001001400044004048
:102470000048004000140140004C00400050004063
:10248000F369FFFF4FF47A720649B0FBF2F0401E89
:10249000486000238B60052008607047024908608F
:1024A0007047000010E000E03000002010B5044646
:1024B00000F00CF8206000F01BF8606000F01EF8DF
:1024C000A060606800F022F8E06010BD2548006858
:1024D00000F00C00042804D0082818BF0C2801D0F4
:1024E00001E001E018E001E01D4870471B4870471B
:1024F0001C491D4A0968C1F3031104E019491B4A2C
:102500000968C1F38221515CC84070471549174AD8
:102510000968C1F34231F6E715490A6802F48002FE
:10252000B2F5800F0CBF0E4A0C4A082808680B68E9
:10253000096800F03F00B2FBF0F2C3F3881005D148
:102540004243C1F30140401C400002E04243C1F35A
:102550000270FFE7B2FBF0F0704700000024F400C7
:1025600000127A000838024030270008342800089A
:10257000043802407047FEE7FEE7FEE7FEE77047DB
:102580007047704700BF704738B5394C394D2068E7
:1025900080062BD5E16821F02001E1606FF020007A
:1025A0002060287D62682A54142818DA401C287597
:1025B000C0B202281AD12878A0F130010A293EBF02
:1025C0006978A1F130020A2A0CD20A2212FB00100B
:1025D000103800216875297500F025F806E0002004
:1025E000287503E0002101202975A875E068E97DC0
:1025F000400612D5E26822F04002E2606FF040002F
:1026000020601D4A505C30B16060491CE06840F0B9
:102610004000E06001E000216875E975E06840F085
:102620002000E06031BDF8B5124C607D01281AD160
:10263000114D0020287000260CA704F1180339461C
:102640009A5D04F1240000F01BF804F124012846EF
:1026500000F036F8761C0A2EEFDB0848016841F0DE
:1026600040010160F1BD00206075F1BD25640D00E1
:102670000044004000000020340000200C440040D2
:102680000CB430B583B00A4606A902910446002571
:102690000194009502AB01A9084878441E30FDF76B
:1026A00091FD019A157000284EBF04460198041B45
:1026B000204603B030BC5DF80CFB00BF9FEAFFFF73
:1026C000034600E05B1C1A78002AFBD111F801CB0D
:1026D00083F800C013F8012B002AF7D170470000DF
:1026E0000E48016841F47001016000220C4908683D
:1026F00040F0010008608A600B680A480A4A0340FB
:102700000B604A6000200B68084A23F480230B60AA
:10271000C8604FF0006111607047000088ED00E074
:1027200000380240FFFFF6FE1030002408ED00E004
:102730000000000000000000010203040607080971
:1027400030B5016884684218416802EB5103C9073B
:102750000BD54C4409E012F9011B12F8015B00296A
:1027600004F8015B05D5491CF9D19A42F3D10C302C
:1027700030BD491EF1D5F8E710B507497944183145
:10278000064C7C44163404E00A68081D114488474E
:102790000146A142F8D110BD2C0000004800000005
:1027A0004EF68851CEF20001086840F470000860CF
:1027B000BFF34F8FBFF36F8F4FF00070E1EE100A41
:1027C0007047000047E9FFFFEC03000034000020E1
:1027D000000000006DFFFFFFB801000026000000B0
:1027E0000000002000F00DF8002801D0FFF7C4FF22
:1027F000AFF300800020AFF30080FFF76FFB00F025
:1028000002F80120704700F001B800000746384682
:10281000FFF706FBFBE7000001488047014800473F
:10282000E126000829280008AFF30080FFF7B8FF71
:10283000FFF7D8FF0000000001020304FFF7FEBF0E
:10284000FFF7FEBFFFF7FEBFFFF7FEBFFFF7FEBFBC
:10285000FFF7FEBFFFF7FEBFFFF7FEBFFFF7FEBFAC
:10286000FFF7FEBFFFF7FEBFFFF7FEBFFFF7FEBF9C
:10287000FFF7FEBFFFF7FEBFFFF7FEBFFFF7FEBF8C
:10288000FFF7FEBFFFF7FEBFFFF7FEBFFFF7FEBF7C
:10289000FFF7FEBFFFF7FEBFFFF7FEBFFFF7FEBF6C
:1028A000FFF7FEBFFFF7FEBFFFF7FEBFFFF7FEBF5C
:1028B000FFF7FEBFFFF7FEBFFFF7FEBFFFF7FEBF4C
:1028C000FFF7FEBFFFF7FEBFFFF7FEBFFFF7FEBF3C
:1028D000FFF7FEBFFFF7FEBFFFF7FEBFFFF7FEBF2C
:1028E000FFF7FEBFFFF7FEBFFFF7FEBFFFF7FEBF1C
:1028F000FFF7FEBFFFF7FEBFFFF7FEBFFFF7FEBF0C
:10290000FFF7FEBFFFF7FEBFFFF7FEBFFFF7FEBFFB
:10291000FFF7FEBFFFF7FEBFFFF7FEBFFFF7FEBFEB
:10292000FFF7FEBFFFF7FEBFFFF7FEBFFFF7FEBFDB
:10293000FFF7FEBFFFF7FEBFFFF7FEBFFFF7FEBFCB
:10294000FFF7FEBFFFF7FEBFFFF7FEBFFFF7FEBFBB
:10295000FFF7FEBFFFF7FEBFFFF7FEBFFFF7FEBFAB
:10296000FFF7FEBFFFF7FEBFFFF7FEBFFFF7FEBF9B
:10297000FFF7FEBFFFF7FEBFFFF7FEBFFFF7FEBF8B
:10298000FFF7FEBFFFF7FEBFFFF7FEBFFFF7FEBF7B
:10299000E800090102030405060708090AF100021C
:0329A00024F4001C
:04000005080028299E
:00000001FF
